:020000040800F2
:100000000028002035150008551300085B13000870
:1000100061130008671300086D130008000000005A
:100020000000000000000000000000007313000842
:100030007F130008000000008B13000897130008CE
:100040007D1500087D1500087D1500087D15000848
:100050007D1500087D1500087D1500087D15000838
:100060007D1500087D1500087D1500087D15000828
:100070007D1500087D1500087D1500087D15000818
:100080007D1500087D1500087D1500087D15000808
:100090007D1500087D1500087D1500087D150008F8
:1000A0007D1500087D1500087D1500087D150008E8
:1000B000A51300087D150008000000007D1500084C
:1000C0007D15000800000000000000007D150008FC
:1000D000000000007D1500087D15000800000000EC
:1000E0007D1500087D1500087D1500080000000042
:1000F0000000000000000000000000000000000000
:0C01000000000000000000005FF808F1A3
:10010C0010B5054C237833B9044B13B10448AFF345
:10011C0000800123237010BD6C0000200000000043
:10012C00AC2B000808B5034B1BB103490348AFF3D4
:10013C00008008BD0000000070000020AC2B0008FF
:10014C0080B483B000AF0023FB7137E0FA7920490B
:10015C0013469B0013449B000B4400221A60FA794F
:10016C00FB79C3F10703D8B2194913469B0013441A
:10017C009B000B44043302461A70FA791449134657
:10018C009B0013449B000B44083300221A60FA793D
:10019C000F4913469B0013449B000B440C33002265
:1001AC001A60FA790A4913469B0013449B000B44CE
:1001BC00103300221A70FB790133FB71FB79072B8A
:1001CC00C4D900BF00BF0C37BD4680BC704700BF10
:1001DC00C400002080B400AF104B1B68002B18D05B
:1001EC000E4B9B68002B0CD00C4B9B680A2B05D933
:1001FC000A4B9B680A3B094A936002E0074B0022BA
:10020C009A60064B9B68002B04D1044B01221A7494
:10021C0000E000BFBD4680BC704700BFC40000209A
:10022C00B0B586B000AF144B1B68002B1FD0124B1F
:10023C001B7C002B1BD0104B1B6898470E4B0022CD
:10024C001A740D4B3C1D1D460FCD0FC42B6823603B
:10025C00094B1B79184600F017F93B69002B07D0A6
:10026C007B6839693A69184600F008F800E000BF6D
:10027C001837BD46B0BD00BFC4000020B0B489B073
:10028C0000AFF860B9607A607E4BD3F88C30002BED
:10029C0001D00823F1E07B4B93F890307B76002360
:1002AC00FB610023FB76E3E0FA7E764913469B0064
:1002BC0013449B000B4408331B68FA691344FB611D
:1002CC00FA69BB689A420AD8FA7E6E4913469B00BB
:1002DC0013449B000B441B68002B40F0C680072383
:1002EC00BB7617E0BB7E5A1EB97E66480B469B0058
:1002FC000B449B001844634913469B0013449B001A
:10030C000B4404461D460FCD0FC42B682360BB7EE7
:10031C00013BBB76BA7EFB7E9A42E3D8FA7E594902
:10032C0013469B0013449B000B44FA681A60FA7E38
:10033C00544913469B0013449B000B4404337A7EB0
:10034C001A70FA7E4F4913469B0013449B000B44D2
:10035C000C337A681A60FA7E4A4913469B001344A0
:10036C009B000B44103300221A70FA69BB689A4246
:10037C0050D9FA69BB68D31A7B61FB7E5A1C414980
:10038C0013469B0013449B000B44083319687B698C
:10039C00FA7EC91A3B4813469B0013449B00034446
:1003AC0008331960FA7E374913469B0013449B00AF
:1003BC000B4408331B68002B09D1FA7E31491346D4
:1003CC009B0013449B000B44103301221A70FB7EDC
:1003DC005A1C79692B4813469B0013449B00034419
:1003EC0008331960FB7E5A1C264913469B001344A4
:1003FC009B000B4408331B68002B2CD1FB7E5A1C32
:10040C00204913469B0013449B000B4410330122DC
:10041C001A7020E0FA7EB968FB69C91A19481346AC
:10042C009B0013449B00034408331960FA7E154962
:10043C0013469B0013449B000B4408331B68002B92
:10044C0009D1FA7E0F4913469B0013449B000B44C1
:10045C00103301221A70FA7E0A4913469B0013448A
:10046C009B000B4404331B7807E0FB7E0133FB76C7
:10047C00FB7E072B7FF618AF082318462437BD46A2
:10048C00B0BC7047C4000020B0B485B000AF0346C8
:10049C00FB710023FB737CE0FA7B434913469B0002
:1004AC0013449B000B4404331B78FA799A426DD1A8
:1004BC00FA7B3D4913469B0013449B000B440433C9
:1004CC001B787B73FB7B5A1C374913469B001344E8
:1004DC009B000B441B68002B1DD0FB7B5A1C324924
:1004EC0013469B0013449B000B4408331968FA7B9A
:1004FC002D4813469B0013449B00034408331B6890
:10050C00FA7B01321944284813469B0013449B0084
:10051C00034408331960FB7BBB7317E0BB7B5A1C8D
:10052C00B97B21480B469B000B449B0018441E4989
:10053C0013469B0013449B000B4404461D460FCDF1
:10054C000FC42B682360BB7B0133BB73BB7B062BB7
:10055C00E4D9154B0022C3F88C20134A7B7B82F81C
:10056C009030114B0022C3F894200F4B0022C3F89B
:10057C0098200D4B002283F89C200B4BD3F88C3029
:10058C00002B0CBF01230023DBB207E0FB7B013304
:10059C00FB73FB7B072B7FF67FAF002318461437CA
:1005AC00BD46B0BC704700BFC400002080B483B00F
:1005BC0000AF78600C4A7B6852F82330012B0DD1C8
:1005CC00094B00221A60084B00225A60064B00228D
:1005DC009A60054B0022DA60012300E000231846E4
:1005EC000C37BD4680BC70478800002080B483B0B7
:1005FC0000AF7860044A7B68012142F8231000BFE9
:10060C000C37BD4680BC70478800002080B582B096
:10061C0000AF00237B60AFE05C4A7B6852F823207C
:10062C005B497B6841F823205A4A7B6852F82320A7
:10063C0056497B6841F823207B68032B3AD801A2EA
:10064C0052F823F0610600087906000891060008AC
:10065C00A90600084FF480614F4801F075FA034673
:10066C0019464C4A7B6842F8231024E04FF4006191
:10067C00494801F069FA03461946464A7B6842F834
:10068C00231018E04FF48051434801F05DFA034603
:10069C001946404A7B6842F823100CE04FF4005195
:1006AC003D4801F051FA034619463A4A7B6842F834
:1006BC00231000E000BF354A7B6852F823203549EF
:1006CC007B6851F823309A4253D1304A7B6852F8F8
:1006DC0023202F497B6851F823309A4249D12C4A68
:1006EC007B6852F823202D497B6851F823309A42BD
:1006FC001CD0274A7B6852F8232028497B6841F894
:10070C002320264A7B6852F82330002B31D178689D
:10071C00FFF76CFF224A7B684FF4FA7142F8231002
:10072C00204A7B68012142F8231022E01C4A7B6896
:10073C0052F823305A1E1A497B6841F82320184A74
:10074C007B6852F82330002B13D1154A7B684FF489
:10075C00FA7142F82310114A7B6852F82330002BAF
:10076C0007D17868FFF742FF0E4A7B68012142F8F7
:10077C0023107B6801337B607B68032B7FF74CAFC6
:10078C0000BF00BF0837BD4680BD00BF1000002071
:10079C002000002000000020000C01403000002050
:1007AC00400000208800002080B500AF624B1B6821
:1007BC00032B6AD0032B00F3B780012B02D0022B42
:1007CC0016D0B1E05D4B1B685D4A13605D4B1B6836
:1007DC005D4A136000F0F0FD00F0B8FC00F0C8FCBE
:1007EC004FF47A7000F0E2FC534B02221A60A0E046
:1007FC0000F09AFC0346012B0DD1514B1B68013BB9
:10080C004F4A1360504B1B68013B4F4A13604FF427
:10081C007A7000F0CBFC00F063FC0346012B10D186
:10082C0001224021494801F0A6F900222021474825
:10083C0001F0A1F9434B1A68404B1B68D31A404A8C
:10084C00136000F03BFC0346012B14D13D4B1B689D
:10085C003B4A1360394B1B683B4A136000F0D2FDD6
:10086C0000F074FC00F084FC4FF47A7000F09EFCF5
:10087C00314B03221A600020FFF798FE0346002B31
:10088C0054D02D4B0C221A6050E000F04DFC034666
:10089C00012B0DD12A4B1B68013B294A13602A4BB3
:1008AC001B68013B284A13604FF47A7000F07EFC01
:1008BC0000F016FC0346012B12D101224FF40071FB
:1008CC00224801F058F900224FF480711F4801F0C2
:1008DC0052F91C4B1A68194B1B68D31A1A4A13602D
:1008EC0000F0ECFB0346012B14D1144B1B68144A8B
:1008FC001360144B1B68144A136000F05DFD00F08C
:10090C0025FC00F035FC4FF47A7000F04FFC0A4BDC
:10091C0002221A600020FFF749FE0346002B07D085
:10092C00054B0C221A6003E000BF02E000BF00E0A0
:10093C0000BF00BF80BD00BF50000020640100203C
:10094C00680100206C01002070010020000C0140A7
:10095C0080B500AF6E4B1B680E2B47D00E2B00F3EF
:10096C00CD800C2B02D00D2B7ED0C7E0694B022220
:10097C001A60694B1B68694A136000F069FD00201E
:10098C00FFF714FE0346012B03D1614B0E221A60B4
:10099C00B6E00120FFF70AFE0346012B0AD15E4B9D
:1009AC001B6801335C4A13605D4B1B6801335C4A66
:1009BC001360A5E00220FFF7F9FD0346012B0AD1D5
:1009CC00554B1B68022B40F39B80534B1B68013B20
:1009DC00514A136094E00320FFF7E8FD0346012B16
:1009EC0040F08E804A4B01221A6089E0494B032269
:1009FC001A604B4B1B68494A136000F04DFD0020F8
:100A0C00FFF7D4FD0346012B03D1414B0D221A6095
:100A1C0078E00120FFF7CAFD0346012B0AD13E4BBB
:100A2C001B6801333C4A13603D4B1B6801333C4A45
:100A3C00136067E00220FFF7B9FD0346012B09D1D3
:100A4C00374B1B68012B5DDD354B1B68013B344A72
:100A5C00136057E00320FFF7A9FD0346012B51D18A
:100A6C002B4B01221A604DE02A4B04221A602A4BB0
:100A7C001A682B4B1B68D31A284A136000F030FD00
:100A8C000020FFF793FD0346012B09D1204B0122D7
:100A9C001A60234B03221A601F4B05221A6033E0A5
:100AAC000120FFF783FD0346012B0AD11C4B1B6869
:100ABC0001331B4A1360184B1B680133164A136031
:100ACC0022E00220FFF772FD0346012B0CD1124BE2
:100ADC001A68134B1B68D31A012B15DD0E4B1B68C0
:100AEC00013B0D4A13600FE00320FFF75FFD034647
:100AFC00012B09D1064B01221A6005E000BF04E06E
:100B0C0000BF02E000BF00E000BF00BF80BD00BF1F
:100B1C0050000020680100206C01002070010020B2
:100B2C006401002080B500AF044B1B68044A1268B6
:100B3C001146184600F0F2F800BF80BD6801002095
:100B4C007001002080B500AF00224FF6FF71024803
:100B5C0001F011F800BF80BD0008014080B582B0E3
:100B6C0000AF7860354A7B6813441B7803F00103AF
:100B7C00DBB21A464FF48071314800F0FCFF2F4A6B
:100B8C007B6813441B785B08DBB203F00103DBB218
:100B9C001A464FF400712A4800F0EDFF274A7B6893
:100BAC0013441B789B08DBB203F00103DBB21A463B
:100BBC004FF48061224800F0DEFF204A7B6813442A
:100BCC001B78DB08DBB203F00103DBB21A464FF4EF
:100BDC0000611B4800F0CFFF184A7B6813441B7858
:100BEC001B09DBB203F00103DBB21A464FF4805150
:100BFC00134800F0C0FF114A7B6813441B785B0953
:100C0C00DBB203F00103DBB21A464FF400510C487F
:100C1C0000F0B1FF094A7B6813441B789B09DBB2D7
:100C2C0003F00103DBB21A464FF48041044800F094
:100C3C00A2FF00BF0837BD4680BD00BF5400002096
:100C4C000008014080B582B000AF7860314A7B6803
:100C5C0013441B7803F00103DBB21A4602212E4821
:100C6C0000F089FF2B4A7B6813441B785B08DBB2CE
:100C7C0003F00103DBB21A460421274800F07BFF86
:100C8C00244A7B6813441B789B08DBB203F00103F6
:100C9C00DBB21A460821204800F06DFF1D4A7B6824
:100CAC0013441B78DB08DBB203F00103DBB21A46FA
:100CBC001021194800F05FFF164A7B6813441B781B
:100CCC001B09DBB203F00103DBB21A4620211248E8
:100CDC0000F051FF0F4A7B6813441B785B09DBB2B1
:100CEC0003F00103DBB21A4640210B4800F043FF2E
:100CFC00084A7B6813441B789B09DBB203F00103A1
:100D0C00DBB21A468021044800F035FF00BF0837DB
:100D1C00BD4680BD540000200008014080B582B063
:100D2C0000AF78603960464B1B68022B41D0022B18
:100D3C007CDC002B02D0012B08D077E0FFF702FF00
:100D4C003F4B01221A6000F025FA74E07B683D4AA3
:100D5C0082FB03129210DB17D31A1846FFF7FEFE24
:100D6C003B68384A82FB03129210DB17D31A1846E1
:100D7C00FFF768FF00220121334800F0FCFE01223E
:100D8C000221314800F0F7FE002204212E4800F029
:100D9C00F2FE012208212C4800F0EDFE00F0B2F921
:100DAC000346012B44D1264B02221A6000F0F2F9C3
:100DBC003EE07A68234B83FB02139910D317C91AB0
:100DCC000B469B000B445B00D11A0846FFF7C6FE8E
:100DDC003A681C4B83FB02139910D317C91A0B46A4
:100DEC009B000B445B00D11A0846FFF72BFF012236
:100DFC000121154800F0BFFE00220221124800F02C
:100E0C00BAFE01220421104800F0B5FE0022082190
:100E1C000D4800F0B0FE00F075F90346012B09D126
:100E2C00074B01221A6000F0B5F903E000BF02E0A5
:100E3C0000BF00E000BF00BF0837BD4680BD00BF4B
:100E4C009800002067666666000C014080B500AF14
:100E5C0000F090FB00F02EF800F0B4F800F066F80B
:100E6C000E4801F0E5FAFFF76BF90D4B05221A60FD
:100E7C000C4B03221A60642200210B48FFF7FEF989
:100E8C00642200210948FFF7F9F96422002108487F
:100E9C00FFF7F4F9FFF7C4F9FCE700BF7401002079
:100EAC006C01002064010020310B0008B50700081C
:100EBC005D09000880B590B000AF07F11803282237
:100ECC000021184601F064FE3B1D00221A605A6096
:100EDC009A60DA601A610223BB610123BB621023A2
:100EEC00FB6200237B6307F11803184600F074FEC5
:100EFC000346002B01D000F0DCF80F237B600023AD
:100F0C00BB600023FB6000233B6100237B613B1D26
:100F1C000021184601F0E0F80346002B01D000F048
:100F2C00C8F800BF4037BD4680BD000080B586B014
:100F3C0000AF07F1080300221A605A609A60DA6069
:100F4C003B4600221A605A601D4B4FF080421A60DB
:100F5C001B4B41F63F725A60194B00229A60184B9A
:100F6C000922DA60164B00221A61154B00229A6195
:100F7C00134801F00DFA0346002B01D000F099F84C
:100F8C004FF48053BB6007F1080319460C4801F07D
:100F9C008BFB0346002B01D000F08BF800233B6049
:100FAC0000237B603B461946054801F063FD034670
:100FBC00002B01D000F07DF800BF1837BD4680BD76
:100FCC007401002080B586B000AF07F10803002241
:100FDC001A605A609A60DA60294B9B69284A43F080
:100FEC0004039361264B9B6903F004037B607B68CD
:100FFC00234B9B69224A43F008039361204B9B6966
:10100C0003F008033B603B68002247F6FE711D4865
:10101C0000F0B1FD002240F2FF311B4800F0ABFDA7
:10102C0047F6FE73BB600123FB6000233B61022388
:10103C007B6107F108031946124800F00BFC40F2E3
:10104C00FF33BB600123FB6000233B6102237B6108
:10105C0007F1080319460C4800F0FCFB4FF47053E1
:10106C00BB600023FB6001233B6107F108031946B9
:10107C00054800F0EFFB00BF1837BD4680BD00BF30
:10108C000010024000080140000C014080B582B005
:10109C0000AF78607B681B68B3F1804F05D100F01E
:1010AC0093F8FFF7B3FAFFF795F800BF0837BD4682
:1010BC0080BD80B400AF72B600BFFEE780B400AF55
:1010CC00064B1B68012B04D1044B00221A60012330
:1010DC0000E000231846BD4680BC70479C000020F1
:1010EC0080B400AF064B1B68012B04D1044B0022CB
:1010FC001A60012300E000231846BD4680BC7047EF
:10110C00A400002080B400AF064B1B68012B04D157
:10111C00044B00221A60012300E000231846BD4650
:10112C0080BC7047AC00002080B400AF064B1B683D
:10113C00012B04D1044B00221A60012300E0002390
:10114C001846BD4680BC7047B400002080B400AF88
:10115C00054B1B68642202FB03F3044A136000BFB7
:10116C00BD4680BC704700BF6C010020A000002071
:10117C0080B400AF054B1B68642202FB03F3044AE6
:10118C00136000BFBD4680BC704700BF64010020E7
:10119C00A800002080B400AF034B32221A6000BFBD
:1011AC00BD4680BC704700BFB000002080B483B047
:1011BC0000AF7860034B64221A6000BF0C37BD4649
:1011CC0080BC7047B800002080B400AF294B1B686E
:1011DC00002B0BDD274B1B68013B264A1360254B6C
:1011EC001B68002B02D1244B01221A60234B1B6875
:1011FC00002B0BDD214B1B68013B204A13601F4B5E
:10120C001B68002B02D11E4B01221A601D4B1B6860
:10121C00002B0BDD1B4B1B68013B1A4A1360194B4F
:10122C001B68002B02D1184B01221A60174B1B684C
:10123C00002B0BDD154B1B68013B144A1360134B41
:10124C001B68002B02D1124B01221A60114B1B6838
:10125C00002B0BDD0F4B1B68013B0E4A13600D4B33
:10126C001B68002B02D10C4B01221A6000BFBD463B
:10127C0080BC7047A00000209C000020A80000202B
:10128C00A4000020B0000020AC000020B80000201A
:10129C00B4000020C0000020BC00002080B485B049
:1012AC0000AF154B9B69144A43F001039361124B39
:1012BC009B6903F00103BB60BB680F4BDB690E4AF3
:1012CC0043F08053D3610C4BDB6903F080537B609C
:1012DC007B680A4B5B68FB60FB6823F0E063FB6098
:1012EC00FB6843F08063FB60044AFB68536000BFFB
:1012FC001437BD4680BC704700100240000001400E
:10130C0080B584B000AF78607B681B68B3F1804F08
:10131C0013D10C4BDB690B4A43F00103D361094B2E
:10132C00DB6903F00103FB60FB68002200211C2039
:10133C0000F059FA1C2000F072FA00BF1037BD46BD
:10134C0080BD00BF0010024080B400AFFEE780B447
:10135C0000AFFEE780B400AFFEE780B400AFFEE75D
:10136C0080B400AFFEE780B400AF00BFBD4680BCC8
:10137C00704780B400AF00BFBD4680BC704780B4DE
:10138C0000AF00BFBD4680BC704780B500AF00F019
:10139C0037F900BF80BD000080B500AF024801F0F6
:1013AC0093F800BF80BD00BF7401002080B400AF73
:1013BC0000BFBD4680BC704780B500AF01228021C4
:1013CC000F4800F0D8FB012220210D4800F0D3FB80
:1013DC0000224FF480710A4800F0CDFB00224FF43C
:1013EC000071074800F0C7FB00221021044800F0F0
:1013FC00C2FB00224021024800F0BDFB00BF80BDB3
:10140C00000C014080B500AF002280210F4800F095
:10141C00B2FB002220210D4800F0ADFB01224FF45D
:10142C0080710A4800F0A7FB00224FF400710748B6
:10143C0000F0A1FB01221021044800F09CFB0022CB
:10144C004021024800F097FB00BF80BD000C01401A
:10145C0080B500AF80210F4800F0A5FB10210D488E
:10146C0000F0A1FB00224FF480710A4800F083FBCE
:10147C0000222021074800F07EFB00224FF400716F
:10148C00044800F078FB00224021024800F073FB76
:10149C0000BF80BD000C014080B500AF4FF48071DF
:1014AC000E4800F080FB20210C4800F07CFB002251
:1014BC0080210A4800F05FFB00221021074800F051
:1014CC005AFB00224FF40071044800F054FB002238
:1014DC004021024800F04FFB00BF80BD000C0140D2
:1014EC0080B500AF4FF400710E4800F05CFB40215A
:1014FC000C4800F058FB002280210A4800F03BFB0E
:10150C0000221021074800F036FB00224FF48071B6
:10151C00044800F030FB00222021024800F02BFB95
:10152C0000BF80BD000C0140FFF740FF0B480C4989
:10153C000C4A002302E0D458C4500433C4188C4223
:10154C00F9D3094A094C002301E013600432A2428A
:10155C00FBD301F0F9FAFFF779FC7047000000208B
:10156C006C000020F02B00086C000020C001002053
:10157C00FEE7000080B500AF084B1B68074A43F03C
:10158C0010031360032000F023F90F2000F008F87B
:10159C00FFF784FE0023184680BD00BF00200240E8
:1015AC0080B582B000AF7860124B1A68124B1B7872
:1015BC0019464FF47A73B3FBF1F3B2FBF3F318460D
:1015CC0000F03BF90346002B01D001230EE07B68B1
:1015DC000F2B0AD8002279684FF0FF3000F003F986
:1015EC00064A7B681360002300E001231846083785
:1015FC00BD4680BD60000020680000206400002013
:10160C0080B400AF054B1B781A46054B1B6813447E
:10161C00034A136000BFBD4680BC704768000020C1
:10162C00BC01002080B400AF024B1B681846BD46BD
:10163C0080BC7047BC01002080B485B000AF7860DE
:10164C007B6803F00703FB600C4BDB68BB60BA687C
:10165C004FF6FF031340BB60FB681A02BB681343D1
:10166C0043F0BF6343F40033BB60044ABB68D360F0
:10167C0000BF1437BD4680BC704700BF00ED00E0D2
:10168C0080B400AF044BDB681B0A03F00703184659
:10169C00BD4680BC704700BF00ED00E080B483B055
:1016AC0000AF0346FB7197F90730002B0BDBFB797E
:1016BC0003F01F02064997F907305B09012000FA75
:1016CC0002F241F8232000BF0C37BD4680BC7047A6
:1016DC0000E100E080B483B000AF03463960FB71D9
:1016EC0097F90730002B0ADB3B68DAB20C4997F903
:1016FC0007301201D2B20B4483F800230AE03B6896
:10170C00DAB20849FB7903F00F03043B1201D2B2A1
:10171C000B441A7600BF0C37BD4680BC704700BF27
:10172C0000E100E000ED00E080B489B000AFF860AB
:10173C00B9607A60FB6803F00703FB61FB69C3F1D6
:10174C000703042B28BF0423BB61FB690433062B5E
:10175C0002D9FB69033B00E000237B614FF0FF32B1
:10176C00BB6902FA03F3DA43BB681A407B699A40FF
:10177C004FF0FF317B6901FA03F3D9437B680B40CF
:10178C00134318462437BD4680BC704780B582B0E1
:10179C0000AF78607B68013BB3F1807F01D30123FC
:1017AC000FE00A4A7B68013B53600F214FF0FF307A
:1017BC00FFF790FF054B00229A60044B07221A603A
:1017CC00002318460837BD4680BD00BF10E000E07E
:1017DC0080B582B000AF78607868FFF72DFF00BF4E
:1017EC000837BD4680BD80B586B000AF0346B960F2
:1017FC007A60FB7300237B61FFF742FF78617A68A4
:10180C00B9687869FFF790FF024697F90F301146D7
:10181C001846FFF75FFF00BF1837BD4680BD80B587
:10182C0082B000AF0346FB7197F907301846FFF7FB
:10183C0035FF00BF0837BD4680BD80B582B000AF14
:10184C0078607868FFF7A2FF034618460837BD4654
:10185C0080BD000080B48BB000AF7860396000238D
:10186C007B6200233B6248E101227B6A02FA03F3AC
:10187C00FB613B681B68FA691340BB61BA69FB6981
:10188C009A4240F037813B685B68A34A93425ED032
:10189C00A14A934275D8A14A934258D09F4A934289
:1018AC006FD89F4A934252D09D4A934269D89D4A21
:1018BC0093424CD09B4A934263D89B4A934246D066
:1018CC00994A93425DD8122B2AD8122B59D801A2CF
:1018DC0052F823F05B190008351900084719000865
:1018EC00891900088F1900088F1900088F19000832
:1018FC008F1900088F1900088F1900088F1900081C
:10190C008F1900088F1900088F1900088F1900080B
:10191C008F1900088F1900083D190008511900088B
:10192C00824A934213D02CE03B68DB683B6229E08F
:10193C003B68DB6804333B6224E03B68DB680833BC
:10194C003B621FE03B68DB680C333B621AE03B6890
:10195C009B68002B02D104233B6213E03B689B681D
:10196C00012B05D108233B627B68FA691A6109E0F7
:10197C0008233B627B68FA695A6103E000233B62EF
:10198C0000E000BFBB69FF2B01D87B6801E07B68DE
:10199C0004337B61BB69FF2B02D87B6A9B0002E09E
:1019AC007B6A083B9B003B617B691A680F213B6992
:1019BC0001FA03F3DB431A40396A3B6901FA03F37A
:1019CC001A437B691A603B685B6803F08053002BF9
:1019DC0000F09080564B9B69554A43F0010393618C
:1019EC00534B9B6903F00103BB60BB68514A7B6A94
:1019FC009B08023352F82330FB607B6A03F003032D
:101A0C009B000F2202FA03F3DB43FA681340FB60DE
:101A1C007B68494A93420DD07B68484A934207D071
:101A2C007B68474A934201D1022304E0032302E07E
:101A3C00012300E000237A6A02F003029200934033
:101A4C00FA681343FB603B497B6A9B080233FA68D4
:101A5C0041F823203B685B6803F48013002B06D00D
:101A6C00384B9A683749BB6913438B6006E0354B9A
:101A7C009A68BB69DB43334913408B603B685B68F6
:101A8C0003F40013002B06D02E4BDA682D49BB69EA
:101A9C001343CB6006E02B4BDA68BB69DB43294967
:101AAC001340CB603B685B6803F40033002B06D01B
:101ABC00244B5A682349BB6913434B6006E0214B06
:101ACC005A68BB69DB431F4913404B603B685B683A
:101ADC0003F48033002B06D01A4B1A681949BB69E2
:101AEC0013430B6006E0174B1A68BB69DB431549BF
:101AFC0013400B607B6A01337B623B681A687B6A1C
:101B0C0022FA03F3002B7FF4AFAE00BF00BF2C37DB
:101B1C00BD4680BC704700BF000032100000311081
:101B2C000000221000002110000012100000111003
:101B3C00001002400000014000080140000C014070
:101B4C00001001400004014080B485B000AF786003
:101B5C000B467B807B689A687B881340002B02D0F5
:101B6C000123FB7301E00023FB73FB7B1846143746
:101B7C00BD4680BC704780B483B000AF78600B4624
:101B8C007B8013467B707B78002B03D07A887B6834
:101B9C001A6103E07B881A047B681A6100BF0C375A
:101BAC00BD4680BC704780B485B000AF78600B46F2
:101BBC007B807B68DB68FB607A88FB6813401A04C7
:101BCC00FB68D9437B880B401A437B681A6100BFC2
:101BDC001437BD4680BC704780B586B000AF7860C6
:101BEC007B68002B01D101236CE27B681B6803F03E
:101BFC000103002B00F08780924B5B6803F00C0311
:101C0C00042B0CD08F4B5B6803F00C03082B12D108
:101C1C008C4B5B6803F48033B3F5803F0BD1894B5D
:101C2C001B6803F40033002B6CD07B685B68002BC3
:101C3C0068D1012346E27B685B68B3F5803F06D12F
:101C4C00804B1B687F4A43F4803313602EE07B6823
:101C5C005B68002B0CD17B4B1B687A4A23F48033D6
:101C6C001360784B1B68774A23F4802313601DE0C4
:101C7C007B685B68B3F5A02F0CD1724B1B68714A63
:101C8C0043F4802313606F4B1B686E4A43F480331C
:101C9C0013600BE06B4B1B686A4A23F480331360B0
:101CAC00684B1B68674A23F4802313607B685B686E
:101CBC00002B13D0FFF7B6FC386108E0FFF7B2FC3D
:101CCC0002463B69D31A642B01D90323FAE15D4B1D
:101CDC001B6803F40033002BF0D014E0FFF7A2FCD8
:101CEC00386108E0FFF79EFC02463B69D31A642B6F
:101CFC0001D90323E6E1534B1B6803F40033002B9B
:101D0C00F0D100E000BF7B681B6803F00203002BDE
:101D1C0063D04C4B5B6803F00C03002B0BD0494B8E
:101D2C005B6803F00C03082B1CD1464B5B6803F477
:101D3C008033002B16D1434B1B6803F00203002B9E
:101D4C0005D07B681B69012B01D00123BAE13D4B07
:101D5C001B6823F0F8027B685B69DB00394913438D
:101D6C000B603AE07B681B69002B20D0364B0122BC
:101D7C001A60FFF757FC386108E0FFF753FC024686
:101D8C003B69D31A022B01D903239BE12D4B1B6812
:101D9C0003F00203002BF0D02A4B1B6823F0F8024F
:101DAC007B685B69DB00274913430B6015E0264B0E
:101DBC0000221A60FFF736FC386108E0FFF732FCAE
:101DCC0002463B69D31A022B01D903237AE11D4B3E
:101DDC001B6803F00203002BF0D17B681B6803F037
:101DEC000803002B3AD07B689B69002B19D0174B4A
:101DFC0001221A60FFF716FC386108E0FFF712FCAD
:101E0C0002463B69D31A022B01D903235AE10D4B2D
:101E1C005B6A03F00203002BF0D0012000F09AFA69
:101E2C001CE00A4B00221A60FFF7FCFB38610FE044
:101E3C00FFF7F8FB02463B69D31A022B08D90323A0
:101E4C0040E100BF001002400000424280044242C8
:101E5C009E4B5B6A03F00203002BE9D17B681B6885
:101E6C0003F00403002B00F0A6800023FB75974BB6
:101E7C00DB6903F08053002B0DD1944BDB69934A43
:101E8C0043F08053D361914BDB6903F08053BB600B
:101E9C00BB680123FB758E4B1B6803F48073002B0E
:101EAC0018D18B4B1B688A4A43F480731360FFF77D
:101EBC00B9FB386108E0FFF7B5FB02463B69D31A62
:101ECC00642B01D90323FDE0814B1B6803F4807361
:101EDC00002BF0D07B68DB68012B06D17B4B1B6A97
:101EEC007A4A43F0010313622DE07B68DB68002B18
:101EFC000CD1764B1B6A754A23F001031362734BAA
:101F0C001B6A724A23F0040313621CE07B68DB68D3
:101F1C00052B0CD16D4B1B6A6C4A43F00403136206
:101F2C006A4B1B6A694A43F0010313620BE0674B6F
:101F3C001B6A664A23F001031362644B1B6A634AF3
:101F4C0023F0040313627B68DB68002B15D0FFF7CA
:101F5C0069FB38610AE0FFF765FB02463B69D31A5F
:101F6C0041F28832934201D90323ABE0574B1B6AF1
:101F7C0003F00203002BEED014E0FFF753FB3861A3
:101F8C000AE0FFF74FFB02463B69D31A41F2883255
:101F9C00934201D9032395E04C4B1B6A03F00203D7
:101FAC00002BEED1FB7D012B05D1484BDB69474A59
:101FBC0023F08053D3617B68DB69002B00F08180B8
:101FCC00424B5B6803F00C03082B61D07B68DB6928
:101FDC00022B46D13F4B00221A60FFF723FB3861DE
:101FEC0008E0FFF71FFB02463B69D31A022B01D90D
:101FFC00032367E0354B1B6803F00073002BF0D113
:10200C007B681B6AB3F5803F08D1304B5B6823F4C7
:10201C0000327B689B682D4913434B602B4B5B68EC
:10202C0023F474127B68196A7B685B6A0B4327493B
:10203C0013434B60274B01221A60FFF7F3FA386108
:10204C0008E0FFF7EFFA02463B69D31A022B01D9DD
:10205C00032337E01D4B1B6803F00073002BF0D0FB
:10206C002FE01C4B00221A60FFF7DCFA386108E005
:10207C00FFF7D8FA02463B69D31A022B01D9032386
:10208C0020E0124B1B6803F00073002BF0D118E01A
:10209C007B68DB69012B01D1012313E00B4B5B68DF
:1020AC00FB60FB6803F480327B681B6A9A4206D1A2
:1020BC00FB6803F470127B685B6A9A4201D00123BF
:1020CC0000E0002318461837BD4680BD00100240C2
:1020DC00007000406000424280B584B000AF786070
:1020EC0039607B68002B01D10123D0E06A4B1B685F
:1020FC0003F007033A689A4210D9674B1B6823F028
:10210C00070265493B6813430B60634B1B6803F084
:10211C0007033A689A4201D00123B8E07B681B6838
:10212C0003F00203002B20D07B681B6803F0040330
:10213C00002B05D0594B5B68584A43F4E06353605D
:10214C007B681B6803F00803002B05D0534B5B68BE
:10215C00524A43F460535360504B5B6823F0F002D7
:10216C007B689B684D4913434B607B681B6803F08D
:10217C000103002B40D07B685B68012B07D1474BD8
:10218C001B6803F40033002B15D101237FE07B681F
:10219C005B68022B07D1414B1B6803F00073002BCB
:1021AC0009D1012373E03D4B1B6803F00203002BA4
:1021BC0001D101236BE0394B5B6823F003027B6890
:1021CC005B68364913434B60FFF72CFAF8600AE062
:1021DC00FFF728FA0246FB68D31A41F28832934281
:1021EC0001D9032353E02D4B5B6803F00C027B6891
:1021FC005B689B009A42EBD1274B1B6803F00703EB
:10220C003A689A4210D2244B1B6823F007022249E9
:10221C003B6813430B60204B1B6803F007033A68C1
:10222C009A4201D0012332E07B681B6803F004035F
:10223C00002B08D0194B5B6823F4E0627B68DB68E9
:10224C00164913434B607B681B6803F00803002B93
:10225C0009D0124B5B6823F460527B681B69DB006E
:10226C000E4913434B6000F021F802460B4B5B68A0
:10227C001B0903F00F030A49CB5C22FA03F3094A4A
:10228C001360094B1B681846FFF78AF900231846A0
:10229C001037BD4680BD00BF002002400010024038
:1022AC00C42B0008600000206400002080B487B0BC
:1022BC0000AF0023FB600023BB6000237B61002385
:1022CC007B6000233B611E4B5B68FB60FB6803F08B
:1022DC000C03042B02D0082B03D027E0194B3B61D5
:1022EC0027E0FB689B0C03F00F03174AD35C7B6061
:1022FC00FB6803F48033002B10D0114B5B685B0C34
:10230C0003F00103114AD35CBB607B680D4A02FBEE
:10231C0003F2BB68B2FBF3F37B6104E07B680C4A0D
:10232C0002FB03F37B617B693B6102E0054B3B6184
:10233C0000BF3B6918461C37BD4680BC704700BFC8
:10234C000010024000127A00D42B0008E42B000885
:10235C0000093D0080B485B000AF78600A4B1B6863
:10236C000A4AA2FB03235B0A7A6802FB03F3FB60B5
:10237C0000BFFB685A1EFA60002BF9D100BF00BFEA
:10238C001437BD4680BC704760000020D34D6210EE
:10239C0080B582B000AF78607B68002B01D101233F
:1023AC0041E07B6893F83D30DBB2002B06D17B68B3
:1023BC00002283F83C207868FEF7A2FF7B6802229B
:1023CC0083F83D207B681A687B68043319461046F5
:1023DC0000F056FA7B68012283F846207B680122C4
:1023EC0083F83E207B68012283F83F207B68012222
:1023FC0083F840207B68012283F841207B6801220E
:10240C0083F842207B68012283F843207B680122F9
:10241C0083F844207B68012283F845207B680122E5
:10242C0083F83D20002318460837BD4680BD0000C8
:10243C0080B485B000AF78607B6893F83D30DBB238
:10244C00012B01D0012335E07B68022283F83D206B
:10245C007B681B68DA687B681B6842F00102DA60F3
:10246C007B681B68164A934209D07B681B68B3F1E2
:10247C00804F04D07B681B68124A934211D17B6851
:10248C001B689B6803F00703FB60FB68062B10D0EE
:10249C007B681B681A687B681B6842F001021A6033
:1024AC0007E07B681B681A687B681B6842F00102B6
:1024BC001A60002318461437BD4680BC704700BF15
:1024CC00002C01400004004080B584B000AF78605F
:1024DC007B681B68DB68FB607B681B681B69BB60E7
:1024EC00BB6803F00203002B20D0FB6803F002034F
:1024FC00002B1BD07B681B686FF002021A617B6893
:10250C0001221A777B681B689B6903F00303002B7D
:10251C0003D0786800F098F905E0786800F08BF942
:10252C00786800F09AF97B6800221A77BB6803F090
:10253C000403002B20D0FB6803F00403002B1BD0FA
:10254C007B681B686FF004021A617B6802221A77A1
:10255C007B681B689B6903F44073002B03D078687D
:10256C0000F072F905E0786800F065F9786800F021
:10257C0074F97B6800221A77BB6803F00803002B00
:10258C0020D0FB6803F00803002B1BD07B681B6872
:10259C006FF008021A617B6804221A777B681B684B
:1025AC00DB6903F00303002B03D0786800F04CF9CF
:1025BC0005E0786800F03FF9786800F04EF97B6828
:1025CC0000221A77BB6803F01003002B20D0FB68A5
:1025DC0003F01003002B1BD07B681B686FF01002FC
:1025EC001A617B6808221A777B681B68DB6903F425
:1025FC004073002B03D0786800F026F905E078686A
:10260C0000F019F9786800F028F97B6800221A7735
:10261C00BB6803F00103002B0CD0FB6803F0010333
:10262C00002B07D07B681B686FF001021A61786879
:10263C00FEF72CFDBB6803F08003002B0CD0FB686D
:10264C0003F08003002B07D07B681B686FF08002BF
:10265C001A61786800F06FFABB6803F04003002B36
:10266C000CD0FB6803F04003002B07D07B681B6881
:10267C006FF040021A61786800F0F8F8BB6803F05C
:10268C002003002B0CD0FB6803F02003002B07D099
:10269C007B681B686FF020021A61786800F042FAC0
:1026AC0000BF1037BD4680BD80B584B000AF7860E8
:1026BC0039600023FB737B6893F83C30012B01D10C
:1026CC000223B4E07B68012283F83C207B68022261
:1026DC0083F83D207B681B689B68BB60BB6823F05C
:1026EC007703BB60BB6823F47F43BB607B681B68CC
:1026FC00BA689A603B681B68B3F5005F3ED0B3F5CF
:10270C00005F00F28780B3F5805F00F08680B3F540
:10271C00805F7FD8702B1AD0702B7BD8602B50D059
:10272C00602B77D8502B3CD0502B73D8402B58D0E3
:10273C00402B6FD8302B64D0302B6BD8202B60D033
:10274C00202B67D8002B5CD0102B5AD062E07B6812
:10275C0018683B6899683B685A683B68DB6800F00E
:10276C006AF97B681B689B68BB60BB6843F07703A6
:10277C00BB607B681B68BA689A604FE07B6818681E
:10278C003B6899683B685A683B68DB6800F053F912
:10279C007B681B689A687B681B6842F480429A606D
:1027AC003CE07B6818683B6859683B68DB681A46F4
:1027BC0000F0CAF87B681B685021184600F021F91C
:1027CC002CE07B6818683B6859683B68DB681A46E4
:1027DC0000F0E8F87B681B686021184600F011F9DE
:1027EC001CE07B6818683B6859683B68DB681A46D4
:1027FC0000F0AAF87B681B684021184600F001F92C
:10280C000CE07B681A683B681B681946104600F0A0
:10281C00F8F803E00123FB7300E000BF7B680122A2
:10282C0083F83D207B68002283F83C20FB7B184614
:10283C001037BD4680BD80B483B000AF786000BF58
:10284C000C37BD4680BC704780B483B000AF786055
:10285C0000BF0C37BD4680BC704780B483B000AF5E
:10286C00786000BF0C37BD4680BC704780B483B025
:10287C0000AF786000BF0C37BD4680BC70470000CD
:10288C0080B485B000AF786039607B681B68FB60F2
:10289C007B682B4A934207D07B68B3F1804F03D0FF
:1028AC007B68284A934208D1FB6823F07003FB60D5
:1028BC003B685B68FA681343FB607B68204A934271
:1028CC0007D07B68B3F1804F03D07B681D4A9342DD
:1028DC0008D1FB6823F44073FB603B68DB68FA6843
:1028EC001343FB60FB6823F080023B685B69134376
:1028FC00FB607B68FA681A603B689A687B68DA62EE
:10290C003B681A687B689A627B680D4A934203D1D4
:10291C003B681A697B681A637B6801225A617B6881
:10292C001B6903F00103002B05D07B681B6923F0A6
:10293C0001027B681A6100BF1437BD4680BC70472A
:10294C00002C01400004004080B487B000AFF86058
:10295C00B9607A60FB681B6A7B61FB681B6A23F0B9
:10296C000102FB681A62FB689B693B613B6923F0BF
:10297C00F0033B617B681B013A6913433B617B6944
:10298C0023F00A037B617A69BB6813437B61FB68A4
:10299C003A699A61FB687A691A6200BF1C37BD46B6
:1029AC0080BC704780B487B000AFF860B9607A60C3
:1029BC00FB681B6A7B61FB681B6A23F01002FB68D7
:1029CC001A62FB689B693B613B6923F470433B6172
:1029DC007B681B033A6913433B617B6923F0A003BB
:1029EC007B61BB681B017A6913437B61FB683A69A5
:1029FC009A61FB687A691A6200BF1C37BD4680BCBD
:102A0C00704780B485B000AF786039607B689B6894
:102A1C00FB60FB6823F07003FB603A68FB681343B0
:102A2C0043F00703FB607B68FA689A6000BF1437B9
:102A3C00BD4680BC704780B487B000AFF860B96009
:102A4C007A603B60FB689B687B617B6923F47F4306
:102A5C007B613B681A027B681A43BB6813437A6933
:102A6C0013437B61FB687A699A6000BF1C37BD46D3
:102A7C0080BC704780B485B000AF786039607B68EB
:102A8C0093F83C30012B01D1022341E07B680122F9
:102A9C0083F83C207B68022283F83D207B681B680E
:102AAC005B68FB607B681B689B68BB60FB6823F002
:102ABC007003FB603B681B68FA681343FB607B6820
:102ACC001B68FA685A607B681B68144A934209D0E9
:102ADC007B681B68B3F1804F04D07B681B68104A7D
:102AEC0093420CD1BB6823F08003BB603B685B68EE
:102AFC00BA681343BB607B681B68BA689A607B68D2
:102B0C00012283F83D207B68002283F83C200023BF
:102B1C0018461437BD4680BC704700BF002C0140DE
:102B2C000004004080B483B000AF786000BF0C3765
:102B3C00BD4680BC704780B483B000AF786000BFE6
:102B4C000C37BD4680BC704770B500260C4D0D4C43
:102B5C00641BA410A64209D100F022F800260A4DED
:102B6C000A4C641BA410A64205D170BD55F8043B59
:102B7C0098470136EEE755F8043B98470136F2E7E3
:102B8C00E82B0008E82B0008E82B0008EC2B0008C9
:102B9C0003460244934200D1704703F8011BF9E746
:102BAC00F8B500BFF8BC08BC9E467047F8B500BF2E
:082BBC00F8BC08BC9E467047FE
:102BC40000000000000000000102030406070809D9
:102BD40002030405060708090A0B0C0D0E0F10105A
:042BE40001020000EA
:042BE80031010008AF
:042BEC000D010008CF
:102BF00001000000010000000100000001000000D1
:102C000001000000010000000100000001000000C0
:102C100001000000010000000100000001000000B0
:102C200001000000010000000100000001000000A0
:102C3000F4010000F4010000F4010000F4010000C0
:102C400001000000C0F9A4B0999282F880900000C1
:0C2C500000127A001000000001000000DB
:0400000508001535A5
:00000001FF
